{
  "_format": "hh-sol-artifact-1",
  "contractName": "Adopt",
  "sourceName": "contracts/Adopt.sol",
  "abi": [
    {
      "inputs": [
        {
          "internalType": "string",
          "name": "_name",
          "type": "string"
        },
        {
          "internalType": "string",
          "name": "_symbol",
          "type": "string"
        },
        {
          "internalType": "address[]",
          "name": "payees",
          "type": "address[]"
        },
        {
          "internalType": "uint256[]",
          "name": "shares",
          "type": "uint256[]"
        }
      ],
      "stateMutability": "nonpayable",
      "type": "constructor"
    },
    {
      "anonymous": false,
      "inputs": [
        {
          "indexed": true,
          "internalType": "address",
          "name": "owner",
          "type": "address"
        },
        {
          "indexed": true,
          "internalType": "address",
          "name": "approved",
          "type": "address"
        },
        {
          "indexed": true,
          "internalType": "uint256",
          "name": "tokenId",
          "type": "uint256"
        }
      ],
      "name": "Approval",
      "type": "event"
    },
    {
      "anonymous": false,
      "inputs": [
        {
          "indexed": true,
          "internalType": "address",
          "name": "owner",
          "type": "address"
        },
        {
          "indexed": true,
          "internalType": "address",
          "name": "operator",
          "type": "address"
        },
        {
          "indexed": false,
          "internalType": "bool",
          "name": "approved",
          "type": "bool"
        }
      ],
      "name": "ApprovalForAll",
      "type": "event"
    },
    {
      "anonymous": false,
      "inputs": [
        {
          "indexed": true,
          "internalType": "contract IERC20",
          "name": "token",
          "type": "address"
        },
        {
          "indexed": false,
          "internalType": "address",
          "name": "to",
          "type": "address"
        },
        {
          "indexed": false,
          "internalType": "uint256",
          "name": "amount",
          "type": "uint256"
        }
      ],
      "name": "ERC20PaymentReleased",
      "type": "event"
    },
    {
      "anonymous": false,
      "inputs": [
        {
          "indexed": true,
          "internalType": "address",
          "name": "previousOwner",
          "type": "address"
        },
        {
          "indexed": true,
          "internalType": "address",
          "name": "newOwner",
          "type": "address"
        }
      ],
      "name": "OwnershipTransferred",
      "type": "event"
    },
    {
      "anonymous": false,
      "inputs": [
        {
          "indexed": false,
          "internalType": "address",
          "name": "account",
          "type": "address"
        },
        {
          "indexed": false,
          "internalType": "uint256",
          "name": "shares",
          "type": "uint256"
        }
      ],
      "name": "PayeeAdded",
      "type": "event"
    },
    {
      "anonymous": false,
      "inputs": [
        {
          "indexed": false,
          "internalType": "address",
          "name": "from",
          "type": "address"
        },
        {
          "indexed": false,
          "internalType": "uint256",
          "name": "amount",
          "type": "uint256"
        }
      ],
      "name": "PaymentReceived",
      "type": "event"
    },
    {
      "anonymous": false,
      "inputs": [
        {
          "indexed": false,
          "internalType": "address",
          "name": "to",
          "type": "address"
        },
        {
          "indexed": false,
          "internalType": "uint256",
          "name": "amount",
          "type": "uint256"
        }
      ],
      "name": "PaymentReleased",
      "type": "event"
    },
    {
      "anonymous": false,
      "inputs": [
        {
          "indexed": true,
          "internalType": "address",
          "name": "from",
          "type": "address"
        },
        {
          "indexed": true,
          "internalType": "address",
          "name": "to",
          "type": "address"
        },
        {
          "indexed": true,
          "internalType": "uint256",
          "name": "tokenId",
          "type": "uint256"
        }
      ],
      "name": "Transfer",
      "type": "event"
    },
    {
      "inputs": [
        {
          "internalType": "address",
          "name": "to",
          "type": "address"
        },
        {
          "internalType": "uint256",
          "name": "tokenId",
          "type": "uint256"
        }
      ],
      "name": "approve",
      "outputs": [],
      "stateMutability": "nonpayable",
      "type": "function"
    },
    {
      "inputs": [
        {
          "internalType": "address",
          "name": "owner",
          "type": "address"
        }
      ],
      "name": "balanceOf",
      "outputs": [
        {
          "internalType": "uint256",
          "name": "",
          "type": "uint256"
        }
      ],
      "stateMutability": "view",
      "type": "function"
    },
    {
      "inputs": [
        {
          "internalType": "uint256",
          "name": "tokenId",
          "type": "uint256"
        }
      ],
      "name": "getApproved",
      "outputs": [
        {
          "internalType": "address",
          "name": "",
          "type": "address"
        }
      ],
      "stateMutability": "view",
      "type": "function"
    },
    {
      "inputs": [],
      "name": "getCost",
      "outputs": [
        {
          "internalType": "uint256",
          "name": "",
          "type": "uint256"
        }
      ],
      "stateMutability": "view",
      "type": "function"
    },
    {
      "inputs": [],
      "name": "getNFTCost",
      "outputs": [
        {
          "internalType": "uint256",
          "name": "",
          "type": "uint256"
        }
      ],
      "stateMutability": "view",
      "type": "function"
    },
    {
      "inputs": [
        {
          "internalType": "address",
          "name": "owner",
          "type": "address"
        },
        {
          "internalType": "address",
          "name": "operator",
          "type": "address"
        }
      ],
      "name": "isApprovedForAll",
      "outputs": [
        {
          "internalType": "bool",
          "name": "",
          "type": "bool"
        }
      ],
      "stateMutability": "view",
      "type": "function"
    },
    {
      "inputs": [
        {
          "internalType": "address",
          "name": "recipient",
          "type": "address"
        },
        {
          "internalType": "string",
          "name": "tokenURI",
          "type": "string"
        }
      ],
      "name": "mintNFT",
      "outputs": [
        {
          "internalType": "uint256",
          "name": "",
          "type": "uint256"
        }
      ],
      "stateMutability": "payable",
      "type": "function"
    },
    {
      "inputs": [],
      "name": "name",
      "outputs": [
        {
          "internalType": "string",
          "name": "",
          "type": "string"
        }
      ],
      "stateMutability": "view",
      "type": "function"
    },
    {
      "inputs": [],
      "name": "owner",
      "outputs": [
        {
          "internalType": "address",
          "name": "",
          "type": "address"
        }
      ],
      "stateMutability": "view",
      "type": "function"
    },
    {
      "inputs": [
        {
          "internalType": "uint256",
          "name": "tokenId",
          "type": "uint256"
        }
      ],
      "name": "ownerOf",
      "outputs": [
        {
          "internalType": "address",
          "name": "",
          "type": "address"
        }
      ],
      "stateMutability": "view",
      "type": "function"
    },
    {
      "inputs": [
        {
          "internalType": "uint256",
          "name": "index",
          "type": "uint256"
        }
      ],
      "name": "payee",
      "outputs": [
        {
          "internalType": "address",
          "name": "",
          "type": "address"
        }
      ],
      "stateMutability": "view",
      "type": "function"
    },
    {
      "inputs": [
        {
          "internalType": "address",
          "name": "account",
          "type": "address"
        }
      ],
      "name": "releasable",
      "outputs": [
        {
          "internalType": "uint256",
          "name": "",
          "type": "uint256"
        }
      ],
      "stateMutability": "view",
      "type": "function"
    },
    {
      "inputs": [
        {
          "internalType": "contract IERC20",
          "name": "token",
          "type": "address"
        },
        {
          "internalType": "address",
          "name": "account",
          "type": "address"
        }
      ],
      "name": "releasable",
      "outputs": [
        {
          "internalType": "uint256",
          "name": "",
          "type": "uint256"
        }
      ],
      "stateMutability": "view",
      "type": "function"
    },
    {
      "inputs": [
        {
          "internalType": "address payable",
          "name": "account",
          "type": "address"
        }
      ],
      "name": "release",
      "outputs": [],
      "stateMutability": "nonpayable",
      "type": "function"
    },
    {
      "inputs": [
        {
          "internalType": "contract IERC20",
          "name": "token",
          "type": "address"
        },
        {
          "internalType": "address",
          "name": "account",
          "type": "address"
        }
      ],
      "name": "release",
      "outputs": [],
      "stateMutability": "nonpayable",
      "type": "function"
    },
    {
      "inputs": [
        {
          "internalType": "contract IERC20",
          "name": "token",
          "type": "address"
        },
        {
          "internalType": "address",
          "name": "account",
          "type": "address"
        }
      ],
      "name": "released",
      "outputs": [
        {
          "internalType": "uint256",
          "name": "",
          "type": "uint256"
        }
      ],
      "stateMutability": "view",
      "type": "function"
    },
    {
      "inputs": [
        {
          "internalType": "address",
          "name": "account",
          "type": "address"
        }
      ],
      "name": "released",
      "outputs": [
        {
          "internalType": "uint256",
          "name": "",
          "type": "uint256"
        }
      ],
      "stateMutability": "view",
      "type": "function"
    },
    {
      "inputs": [],
      "name": "renounceOwnership",
      "outputs": [],
      "stateMutability": "nonpayable",
      "type": "function"
    },
    {
      "inputs": [
        {
          "internalType": "address",
          "name": "from",
          "type": "address"
        },
        {
          "internalType": "address",
          "name": "to",
          "type": "address"
        },
        {
          "internalType": "uint256",
          "name": "tokenId",
          "type": "uint256"
        }
      ],
      "name": "safeTransferFrom",
      "outputs": [],
      "stateMutability": "nonpayable",
      "type": "function"
    },
    {
      "inputs": [
        {
          "internalType": "address",
          "name": "from",
          "type": "address"
        },
        {
          "internalType": "address",
          "name": "to",
          "type": "address"
        },
        {
          "internalType": "uint256",
          "name": "tokenId",
          "type": "uint256"
        },
        {
          "internalType": "bytes",
          "name": "data",
          "type": "bytes"
        }
      ],
      "name": "safeTransferFrom",
      "outputs": [],
      "stateMutability": "nonpayable",
      "type": "function"
    },
    {
      "inputs": [
        {
          "internalType": "address",
          "name": "operator",
          "type": "address"
        },
        {
          "internalType": "bool",
          "name": "approved",
          "type": "bool"
        }
      ],
      "name": "setApprovalForAll",
      "outputs": [],
      "stateMutability": "nonpayable",
      "type": "function"
    },
    {
      "inputs": [
        {
          "internalType": "address",
          "name": "account",
          "type": "address"
        }
      ],
      "name": "shares",
      "outputs": [
        {
          "internalType": "uint256",
          "name": "",
          "type": "uint256"
        }
      ],
      "stateMutability": "view",
      "type": "function"
    },
    {
      "inputs": [
        {
          "internalType": "bytes4",
          "name": "interfaceId",
          "type": "bytes4"
        }
      ],
      "name": "supportsInterface",
      "outputs": [
        {
          "internalType": "bool",
          "name": "",
          "type": "bool"
        }
      ],
      "stateMutability": "view",
      "type": "function"
    },
    {
      "inputs": [],
      "name": "symbol",
      "outputs": [
        {
          "internalType": "string",
          "name": "",
          "type": "string"
        }
      ],
      "stateMutability": "view",
      "type": "function"
    },
    {
      "inputs": [
        {
          "internalType": "uint256",
          "name": "tokenId",
          "type": "uint256"
        }
      ],
      "name": "tokenURI",
      "outputs": [
        {
          "internalType": "string",
          "name": "",
          "type": "string"
        }
      ],
      "stateMutability": "view",
      "type": "function"
    },
    {
      "inputs": [
        {
          "internalType": "contract IERC20",
          "name": "token",
          "type": "address"
        }
      ],
      "name": "totalReleased",
      "outputs": [
        {
          "internalType": "uint256",
          "name": "",
          "type": "uint256"
        }
      ],
      "stateMutability": "view",
      "type": "function"
    },
    {
      "inputs": [],
      "name": "totalReleased",
      "outputs": [
        {
          "internalType": "uint256",
          "name": "",
          "type": "uint256"
        }
      ],
      "stateMutability": "view",
      "type": "function"
    },
    {
      "inputs": [],
      "name": "totalShares",
      "outputs": [
        {
          "internalType": "uint256",
          "name": "",
          "type": "uint256"
        }
      ],
      "stateMutability": "view",
      "type": "function"
    },
    {
      "inputs": [
        {
          "internalType": "address",
          "name": "from",
          "type": "address"
        },
        {
          "internalType": "address",
          "name": "to",
          "type": "address"
        },
        {
          "internalType": "uint256",
          "name": "tokenId",
          "type": "uint256"
        }
      ],
      "name": "transferFrom",
      "outputs": [],
      "stateMutability": "nonpayable",
      "type": "function"
    },
    {
      "inputs": [
        {
          "internalType": "address",
          "name": "newOwner",
          "type": "address"
        }
      ],
      "name": "transferOwnership",
      "outputs": [],
      "stateMutability": "nonpayable",
      "type": "function"
    },
    {
      "inputs": [
        {
          "internalType": "uint256",
          "name": "cost",
          "type": "uint256"
        }
      ],
      "name": "updateCost",
      "outputs": [],
      "stateMutability": "nonpayable",
      "type": "function"
    },
    {
      "stateMutability": "payable",
      "type": "receive"
    }
  ],
  "bytecode": "0x6080604052662386f26fc10000600f553480156200001c57600080fd5b506040516200551138038062005511833981810160405281019062000042919062000881565b81818585816000908162000057919062000bb0565b50806001908162000069919062000bb0565b5050508051825114620000b3576040517f08c379a0000000000000000000000000000000000000000000000000000000008152600401620000aa9062000d1e565b60405180910390fd5b6000825111620000fa576040517f08c379a0000000000000000000000000000000000000000000000000000000008152600401620000f19062000d90565b60405180910390fd5b60005b825181101562000169576200015383828151811062000121576200012062000db2565b5b60200260200101518383815181106200013f576200013e62000db2565b5b60200260200101516200019660201b60201c565b8080620001609062000e10565b915050620000fd565b5050506200018c62000180620003cf60201b60201c565b620003d760201b60201c565b5050505062001089565b600073ffffffffffffffffffffffffffffffffffffffff168273ffffffffffffffffffffffffffffffffffffffff160362000208576040517f08c379a0000000000000000000000000000000000000000000000000000000008152600401620001ff9062000ed3565b60405180910390fd5b600081116200024e576040517f08c379a0000000000000000000000000000000000000000000000000000000008152600401620002459062000f45565b60405180910390fd5b6000600960008473ffffffffffffffffffffffffffffffffffffffff1673ffffffffffffffffffffffffffffffffffffffff1681526020019081526020016000205414620002d3576040517f08c379a0000000000000000000000000000000000000000000000000000000008152600401620002ca9062000fdd565b60405180910390fd5b600b829080600181540180825580915050600190039060005260206000200160009091909190916101000a81548173ffffffffffffffffffffffffffffffffffffffff021916908373ffffffffffffffffffffffffffffffffffffffff16021790555080600960008473ffffffffffffffffffffffffffffffffffffffff1673ffffffffffffffffffffffffffffffffffffffff16815260200190815260200160002081905550806007546200038a919062000fff565b6007819055507f40c340f65e17194d14ddddb073d3c9f888e3cb52b5aae0c6c7706b4fbc905fac8282604051620003c39291906200105c565b60405180910390a15050565b600033905090565b6000600e60009054906101000a900473ffffffffffffffffffffffffffffffffffffffff16905081600e60006101000a81548173ffffffffffffffffffffffffffffffffffffffff021916908373ffffffffffffffffffffffffffffffffffffffff1602179055508173ffffffffffffffffffffffffffffffffffffffff168173ffffffffffffffffffffffffffffffffffffffff167f8be0079c531659141344cd1fd0a4f28419497f9722a3daafe3b4186f6b6457e060405160405180910390a35050565b6000604051905090565b600080fd5b600080fd5b600080fd5b600080fd5b6000601f19601f8301169050919050565b7f4e487b7100000000000000000000000000000000000000000000000000000000600052604160045260246000fd5b6200050682620004bb565b810181811067ffffffffffffffff82111715620005285762000527620004cc565b5b80604052505050565b60006200053d6200049d565b90506200054b8282620004fb565b919050565b600067ffffffffffffffff8211156200056e576200056d620004cc565b5b6200057982620004bb565b9050602081019050919050565b60005b83811015620005a657808201518184015260208101905062000589565b60008484015250505050565b6000620005c9620005c38462000550565b62000531565b905082815260208101848484011115620005e857620005e7620004b6565b5b620005f584828562000586565b509392505050565b600082601f830112620006155762000614620004b1565b5b815162000627848260208601620005b2565b91505092915050565b600067ffffffffffffffff8211156200064e576200064d620004cc565b5b602082029050602081019050919050565b600080fd5b600073ffffffffffffffffffffffffffffffffffffffff82169050919050565b6000620006918262000664565b9050919050565b620006a38162000684565b8114620006af57600080fd5b50565b600081519050620006c38162000698565b92915050565b6000620006e0620006da8462000630565b62000531565b905080838252602082019050602084028301858111156200070657620007056200065f565b5b835b818110156200073357806200071e8882620006b2565b84526020840193505060208101905062000708565b5050509392505050565b600082601f830112620007555762000754620004b1565b5b815162000767848260208601620006c9565b91505092915050565b600067ffffffffffffffff8211156200078e576200078d620004cc565b5b602082029050602081019050919050565b6000819050919050565b620007b4816200079f565b8114620007c057600080fd5b50565b600081519050620007d481620007a9565b92915050565b6000620007f1620007eb8462000770565b62000531565b905080838252602082019050602084028301858111156200081757620008166200065f565b5b835b818110156200084457806200082f8882620007c3565b84526020840193505060208101905062000819565b5050509392505050565b600082601f830112620008665762000865620004b1565b5b815162000878848260208601620007da565b91505092915050565b600080600080608085870312156200089e576200089d620004a7565b5b600085015167ffffffffffffffff811115620008bf57620008be620004ac565b5b620008cd87828801620005fd565b945050602085015167ffffffffffffffff811115620008f157620008f0620004ac565b5b620008ff87828801620005fd565b935050604085015167ffffffffffffffff811115620009235762000922620004ac565b5b62000931878288016200073d565b925050606085015167ffffffffffffffff811115620009555762000954620004ac565b5b62000963878288016200084e565b91505092959194509250565b600081519050919050565b7f4e487b7100000000000000000000000000000000000000000000000000000000600052602260045260246000fd5b60006002820490506001821680620009c257607f821691505b602082108103620009d857620009d76200097a565b5b50919050565b60008190508160005260206000209050919050565b60006020601f8301049050919050565b600082821b905092915050565b60006008830262000a427fffffffffffffffffffffffffffffffffffffffffffffffffffffffffffffffff8262000a03565b62000a4e868362000a03565b95508019841693508086168417925050509392505050565b6000819050919050565b600062000a9162000a8b62000a85846200079f565b62000a66565b6200079f565b9050919050565b6000819050919050565b62000aad8362000a70565b62000ac562000abc8262000a98565b84845462000a10565b825550505050565b600090565b62000adc62000acd565b62000ae981848462000aa2565b505050565b5b8181101562000b115762000b0560008262000ad2565b60018101905062000aef565b5050565b601f82111562000b605762000b2a81620009de565b62000b3584620009f3565b8101602085101562000b45578190505b62000b5d62000b5485620009f3565b83018262000aee565b50505b505050565b600082821c905092915050565b600062000b856000198460080262000b65565b1980831691505092915050565b600062000ba0838362000b72565b9150826002028217905092915050565b62000bbb826200096f565b67ffffffffffffffff81111562000bd75762000bd6620004cc565b5b62000be38254620009a9565b62000bf082828562000b15565b600060209050601f83116001811462000c28576000841562000c13578287015190505b62000c1f858262000b92565b86555062000c8f565b601f19841662000c3886620009de565b60005b8281101562000c625784890151825560018201915060208501945060208101905062000c3b565b8683101562000c82578489015162000c7e601f89168262000b72565b8355505b6001600288020188555050505b505050505050565b600082825260208201905092915050565b7f5061796d656e7453706c69747465723a2070617965657320616e64207368617260008201527f6573206c656e677468206d69736d617463680000000000000000000000000000602082015250565b600062000d0660328362000c97565b915062000d138262000ca8565b604082019050919050565b6000602082019050818103600083015262000d398162000cf7565b9050919050565b7f5061796d656e7453706c69747465723a206e6f20706179656573000000000000600082015250565b600062000d78601a8362000c97565b915062000d858262000d40565b602082019050919050565b6000602082019050818103600083015262000dab8162000d69565b9050919050565b7f4e487b7100000000000000000000000000000000000000000000000000000000600052603260045260246000fd5b7f4e487b7100000000000000000000000000000000000000000000000000000000600052601160045260246000fd5b600062000e1d826200079f565b91507fffffffffffffffffffffffffffffffffffffffffffffffffffffffffffffffff820362000e525762000e5162000de1565b5b600182019050919050565b7f5061796d656e7453706c69747465723a206163636f756e74206973207468652060008201527f7a65726f20616464726573730000000000000000000000000000000000000000602082015250565b600062000ebb602c8362000c97565b915062000ec88262000e5d565b604082019050919050565b6000602082019050818103600083015262000eee8162000eac565b9050919050565b7f5061796d656e7453706c69747465723a20736861726573206172652030000000600082015250565b600062000f2d601d8362000c97565b915062000f3a8262000ef5565b602082019050919050565b6000602082019050818103600083015262000f608162000f1e565b9050919050565b7f5061796d656e7453706c69747465723a206163636f756e7420616c726561647960008201527f2068617320736861726573000000000000000000000000000000000000000000602082015250565b600062000fc5602b8362000c97565b915062000fd28262000f67565b604082019050919050565b6000602082019050818103600083015262000ff88162000fb6565b9050919050565b60006200100c826200079f565b915062001019836200079f565b925082820190508082111562001034576200103362000de1565b5b92915050565b620010458162000684565b82525050565b62001056816200079f565b82525050565b60006040820190506200107360008301856200103a565b6200108260208301846200104b565b9392505050565b61447880620010996000396000f3fe6080604052600436106101dc5760003560e01c80638b83209b11610102578063c45ac05011610095578063e33b7de311610064578063e33b7de314610765578063e985e9c514610790578063eacabe14146107cd578063f2fde38b146107fd57610223565b8063c45ac05014610671578063c87b56dd146106ae578063ce7c2ac2146106eb578063d79779b21461072857610223565b8063a22cb465116100d1578063a22cb465146105b7578063a3f8eace146105e0578063b88d4fde1461061d578063bd3e19d41461064657610223565b80638b83209b146104e75780638da5cb5b1461052457806395d89b411461054f5780639852595c1461057a57610223565b80633a98ef391161017a5780636352211e116101495780636352211e1461042b57806370a0823114610468578063715018a6146104a557806379c501a4146104bc57610223565b80633a98ef3914610371578063406072a91461039c57806342842e0e146103d957806348b750441461040257610223565b8063095ea7b3116101b6578063095ea7b3146102cd57806319165587146102f657806323b872dd1461031f57806323c5a0881461034857610223565b806301ffc9a71461022857806306fdde0314610265578063081812fc1461029057610223565b36610223577f6ef95f06320e7a25a04a175ca677b7052bdd97131872c2192525a629f51be77061020a610826565b346040516102199291906129b8565b60405180910390a1005b600080fd5b34801561023457600080fd5b5061024f600480360381019061024a9190612a4d565b61082e565b60405161025c9190612a95565b60405180910390f35b34801561027157600080fd5b5061027a610910565b6040516102879190612b40565b60405180910390f35b34801561029c57600080fd5b506102b760048036038101906102b29190612b8e565b6109a2565b6040516102c49190612bbb565b60405180910390f35b3480156102d957600080fd5b506102f460048036038101906102ef9190612c02565b6109e8565b005b34801561030257600080fd5b5061031d60048036038101906103189190612c80565b610aff565b005b34801561032b57600080fd5b5061034660048036038101906103419190612cad565b610c87565b005b34801561035457600080fd5b5061036f600480360381019061036a9190612b8e565b610ce7565b005b34801561037d57600080fd5b50610386610cf9565b6040516103939190612d00565b60405180910390f35b3480156103a857600080fd5b506103c360048036038101906103be9190612d59565b610d03565b6040516103d09190612d00565b60405180910390f35b3480156103e557600080fd5b5061040060048036038101906103fb9190612cad565b610d8a565b005b34801561040e57600080fd5b5061042960048036038101906104249190612d59565b610daa565b005b34801561043757600080fd5b50610452600480360381019061044d9190612b8e565b610fc6565b60405161045f9190612bbb565b60405180910390f35b34801561047457600080fd5b5061048f600480360381019061048a9190612d99565b611077565b60405161049c9190612d00565b60405180910390f35b3480156104b157600080fd5b506104ba61112e565b005b3480156104c857600080fd5b506104d1611142565b6040516104de9190612d00565b60405180910390f35b3480156104f357600080fd5b5061050e60048036038101906105099190612b8e565b61114c565b60405161051b9190612bbb565b60405180910390f35b34801561053057600080fd5b50610539611194565b6040516105469190612bbb565b60405180910390f35b34801561055b57600080fd5b506105646111be565b6040516105719190612b40565b60405180910390f35b34801561058657600080fd5b506105a1600480360381019061059c9190612d99565b611250565b6040516105ae9190612d00565b60405180910390f35b3480156105c357600080fd5b506105de60048036038101906105d99190612df2565b611299565b005b3480156105ec57600080fd5b5061060760048036038101906106029190612d99565b6112af565b6040516106149190612d00565b60405180910390f35b34801561062957600080fd5b50610644600480360381019061063f9190612f67565b6112e2565b005b34801561065257600080fd5b5061065b611344565b6040516106689190612d00565b60405180910390f35b34801561067d57600080fd5b5061069860048036038101906106939190612d59565b61134e565b6040516106a59190612d00565b60405180910390f35b3480156106ba57600080fd5b506106d560048036038101906106d09190612b8e565b6113fd565b6040516106e29190612b40565b60405180910390f35b3480156106f757600080fd5b50610712600480360381019061070d9190612d99565b61150f565b60405161071f9190612d00565b60405180910390f35b34801561073457600080fd5b5061074f600480360381019061074a9190612fea565b611558565b60405161075c9190612d00565b60405180910390f35b34801561077157600080fd5b5061077a6115a1565b6040516107879190612d00565b60405180910390f35b34801561079c57600080fd5b506107b760048036038101906107b29190613017565b6115ab565b6040516107c49190612a95565b60405180910390f35b6107e760048036038101906107e291906130f8565b61163f565b6040516107f49190612d00565b60405180910390f35b34801561080957600080fd5b50610824600480360381019061081f9190612d99565b6116bb565b005b600033905090565b60007f80ac58cd000000000000000000000000000000000000000000000000000000007bffffffffffffffffffffffffffffffffffffffffffffffffffffffff1916827bffffffffffffffffffffffffffffffffffffffffffffffffffffffff191614806108f957507f5b5e139f000000000000000000000000000000000000000000000000000000007bffffffffffffffffffffffffffffffffffffffffffffffffffffffff1916827bffffffffffffffffffffffffffffffffffffffffffffffffffffffff1916145b8061090957506109088261173e565b5b9050919050565b60606000805461091f90613183565b80601f016020809104026020016040519081016040528092919081815260200182805461094b90613183565b80156109985780601f1061096d57610100808354040283529160200191610998565b820191906000526020600020905b81548152906001019060200180831161097b57829003601f168201915b5050505050905090565b60006109ad826117a8565b6004600083815260200190815260200160002060009054906101000a900473ffffffffffffffffffffffffffffffffffffffff169050919050565b60006109f382610fc6565b90508073ffffffffffffffffffffffffffffffffffffffff168373ffffffffffffffffffffffffffffffffffffffff1603610a63576040517f08c379a0000000000000000000000000000000000000000000000000000000008152600401610a5a90613226565b60405180910390fd5b8073ffffffffffffffffffffffffffffffffffffffff16610a82610826565b73ffffffffffffffffffffffffffffffffffffffff161480610ab15750610ab081610aab610826565b6115ab565b5b610af0576040517f08c379a0000000000000000000000000000000000000000000000000000000008152600401610ae7906132b8565b60405180910390fd5b610afa83836117f3565b505050565b6000600960008373ffffffffffffffffffffffffffffffffffffffff1673ffffffffffffffffffffffffffffffffffffffff1681526020019081526020016000205411610b81576040517f08c379a0000000000000000000000000000000000000000000000000000000008152600401610b789061334a565b60405180910390fd5b6000610b8c826112af565b905060008103610bd1576040517f08c379a0000000000000000000000000000000000000000000000000000000008152600401610bc8906133dc565b60405180910390fd5b80600a60008473ffffffffffffffffffffffffffffffffffffffff1673ffffffffffffffffffffffffffffffffffffffff1681526020019081526020016000206000828254610c20919061342b565b925050819055508060086000828254610c39919061342b565b92505081905550610c4a82826118ac565b7fdf20fd1e76bc69d672e4814fafb2c449bba3a5369d8359adf9e05e6fde87b0568282604051610c7b9291906134be565b60405180910390a15050565b610c98610c92610826565b826119a0565b610cd7576040517f08c379a0000000000000000000000000000000000000000000000000000000008152600401610cce90613559565b60405180910390fd5b610ce2838383611a35565b505050565b610cef611c9b565b80600f8190555050565b6000600754905090565b6000600d60008473ffffffffffffffffffffffffffffffffffffffff1673ffffffffffffffffffffffffffffffffffffffff16815260200190815260200160002060008373ffffffffffffffffffffffffffffffffffffffff1673ffffffffffffffffffffffffffffffffffffffff16815260200190815260200160002054905092915050565b610da5838383604051806020016040528060008152506112e2565b505050565b6000600960008373ffffffffffffffffffffffffffffffffffffffff1673ffffffffffffffffffffffffffffffffffffffff1681526020019081526020016000205411610e2c576040517f08c379a0000000000000000000000000000000000000000000000000000000008152600401610e239061334a565b60405180910390fd5b6000610e38838361134e565b905060008103610e7d576040517f08c379a0000000000000000000000000000000000000000000000000000000008152600401610e74906133dc565b60405180910390fd5b80600d60008573ffffffffffffffffffffffffffffffffffffffff1673ffffffffffffffffffffffffffffffffffffffff16815260200190815260200160002060008473ffffffffffffffffffffffffffffffffffffffff1673ffffffffffffffffffffffffffffffffffffffff1681526020019081526020016000206000828254610f09919061342b565b9250508190555080600c60008573ffffffffffffffffffffffffffffffffffffffff1673ffffffffffffffffffffffffffffffffffffffff1681526020019081526020016000206000828254610f5f919061342b565b92505081905550610f71838383611d19565b8273ffffffffffffffffffffffffffffffffffffffff167f3be5b7a71e84ed12875d241991c70855ac5817d847039e17a9d895c1ceb0f18a8383604051610fb99291906129b8565b60405180910390a2505050565b6000806002600084815260200190815260200160002060009054906101000a900473ffffffffffffffffffffffffffffffffffffffff169050600073ffffffffffffffffffffffffffffffffffffffff168173ffffffffffffffffffffffffffffffffffffffff160361106e576040517f08c379a0000000000000000000000000000000000000000000000000000000008152600401611065906135c5565b60405180910390fd5b80915050919050565b60008073ffffffffffffffffffffffffffffffffffffffff168273ffffffffffffffffffffffffffffffffffffffff16036110e7576040517f08c379a00000000000000000000000000000000000000000000000000000000081526004016110de90613657565b60405180910390fd5b600360008373ffffffffffffffffffffffffffffffffffffffff1673ffffffffffffffffffffffffffffffffffffffff168152602001908152602001600020549050919050565b611136611c9b565b6111406000611d9f565b565b6000600f54905090565b6000600b828154811061116257611161613677565b5b9060005260206000200160009054906101000a900473ffffffffffffffffffffffffffffffffffffffff169050919050565b6000600e60009054906101000a900473ffffffffffffffffffffffffffffffffffffffff16905090565b6060600180546111cd90613183565b80601f01602080910402602001604051908101604052809291908181526020018280546111f990613183565b80156112465780601f1061121b57610100808354040283529160200191611246565b820191906000526020600020905b81548152906001019060200180831161122957829003601f168201915b5050505050905090565b6000600a60008373ffffffffffffffffffffffffffffffffffffffff1673ffffffffffffffffffffffffffffffffffffffff168152602001908152602001600020549050919050565b6112ab6112a4610826565b8383611e65565b5050565b6000806112ba6115a1565b476112c5919061342b565b90506112da83826112d586611250565b611fd1565b915050919050565b6112f36112ed610826565b836119a0565b611332576040517f08c379a000000000000000000000000000000000000000000000000000000000815260040161132990613559565b60405180910390fd5b61133e8484848461203f565b50505050565b6000600f54905090565b60008061135a84611558565b8473ffffffffffffffffffffffffffffffffffffffff166370a08231306040518263ffffffff1660e01b81526004016113939190612bbb565b602060405180830381865afa1580156113b0573d6000803e3d6000fd5b505050506040513d601f19601f820116820180604052508101906113d491906136bb565b6113de919061342b565b90506113f483826113ef8787610d03565b611fd1565b91505092915050565b6060611408826117a8565b600060066000848152602001908152602001600020805461142890613183565b80601f016020809104026020016040519081016040528092919081815260200182805461145490613183565b80156114a15780601f10611476576101008083540402835291602001916114a1565b820191906000526020600020905b81548152906001019060200180831161148457829003601f168201915b5050505050905060006114b261209b565b905060008151036114c757819250505061150a565b6000825111156114fc5780826040516020016114e4929190613724565b6040516020818303038152906040529250505061150a565b611505846120b2565b925050505b919050565b6000600960008373ffffffffffffffffffffffffffffffffffffffff1673ffffffffffffffffffffffffffffffffffffffff168152602001908152602001600020549050919050565b6000600c60008373ffffffffffffffffffffffffffffffffffffffff1673ffffffffffffffffffffffffffffffffffffffff168152602001908152602001600020549050919050565b6000600854905090565b6000600560008473ffffffffffffffffffffffffffffffffffffffff1673ffffffffffffffffffffffffffffffffffffffff16815260200190815260200160002060008373ffffffffffffffffffffffffffffffffffffffff1673ffffffffffffffffffffffffffffffffffffffff16815260200190815260200160002060009054906101000a900460ff16905092915050565b6000600f543414611685576040517f08c379a000000000000000000000000000000000000000000000000000000000815260040161167c90613794565b60405180910390fd5b61168f601061211a565b600061169b6010612130565b90506116a7848261213e565b6116b18184612317565b8091505092915050565b6116c3611c9b565b600073ffffffffffffffffffffffffffffffffffffffff168173ffffffffffffffffffffffffffffffffffffffff1603611732576040517f08c379a000000000000000000000000000000000000000000000000000000000815260040161172990613826565b60405180910390fd5b61173b81611d9f565b50565b60007f01ffc9a7000000000000000000000000000000000000000000000000000000007bffffffffffffffffffffffffffffffffffffffffffffffffffffffff1916827bffffffffffffffffffffffffffffffffffffffffffffffffffffffff1916149050919050565b6117b181612384565b6117f0576040517f08c379a00000000000000000000000000000000000000000000000000000000081526004016117e7906135c5565b60405180910390fd5b50565b816004600083815260200190815260200160002060006101000a81548173ffffffffffffffffffffffffffffffffffffffff021916908373ffffffffffffffffffffffffffffffffffffffff160217905550808273ffffffffffffffffffffffffffffffffffffffff1661186683610fc6565b73ffffffffffffffffffffffffffffffffffffffff167f8c5be1e5ebec7d5bd14f71427d1e84f3dd0314c0f7b2291e5b200ac8c7c3b92560405160405180910390a45050565b804710156118ef576040517f08c379a00000000000000000000000000000000000000000000000000000000081526004016118e690613892565b60405180910390fd5b60008273ffffffffffffffffffffffffffffffffffffffff1682604051611915906138e3565b60006040518083038185875af1925050503d8060008114611952576040519150601f19603f3d011682016040523d82523d6000602084013e611957565b606091505b505090508061199b576040517f08c379a00000000000000000000000000000000000000000000000000000000081526004016119929061396a565b60405180910390fd5b505050565b6000806119ac83610fc6565b90508073ffffffffffffffffffffffffffffffffffffffff168473ffffffffffffffffffffffffffffffffffffffff1614806119ee57506119ed81856115ab565b5b80611a2c57508373ffffffffffffffffffffffffffffffffffffffff16611a14846109a2565b73ffffffffffffffffffffffffffffffffffffffff16145b91505092915050565b8273ffffffffffffffffffffffffffffffffffffffff16611a5582610fc6565b73ffffffffffffffffffffffffffffffffffffffff1614611aab576040517f08c379a0000000000000000000000000000000000000000000000000000000008152600401611aa2906139fc565b60405180910390fd5b600073ffffffffffffffffffffffffffffffffffffffff168273ffffffffffffffffffffffffffffffffffffffff1603611b1a576040517f08c379a0000000000000000000000000000000000000000000000000000000008152600401611b1190613a8e565b60405180910390fd5b611b258383836123f0565b611b306000826117f3565b6001600360008573ffffffffffffffffffffffffffffffffffffffff1673ffffffffffffffffffffffffffffffffffffffff1681526020019081526020016000206000828254611b809190613aae565b925050819055506001600360008473ffffffffffffffffffffffffffffffffffffffff1673ffffffffffffffffffffffffffffffffffffffff1681526020019081526020016000206000828254611bd7919061342b565b92505081905550816002600083815260200190815260200160002060006101000a81548173ffffffffffffffffffffffffffffffffffffffff021916908373ffffffffffffffffffffffffffffffffffffffff160217905550808273ffffffffffffffffffffffffffffffffffffffff168473ffffffffffffffffffffffffffffffffffffffff167fddf252ad1be2c89b69c2b068fc378daa952ba7f163c4a11628f55a4df523b3ef60405160405180910390a4611c968383836123f5565b505050565b611ca3610826565b73ffffffffffffffffffffffffffffffffffffffff16611cc1611194565b73ffffffffffffffffffffffffffffffffffffffff1614611d17576040517f08c379a0000000000000000000000000000000000000000000000000000000008152600401611d0e90613b2e565b60405180910390fd5b565b611d9a8363a9059cbb60e01b8484604051602401611d389291906129b8565b604051602081830303815290604052907bffffffffffffffffffffffffffffffffffffffffffffffffffffffff19166020820180517bffffffffffffffffffffffffffffffffffffffffffffffffffffffff83818316178352505050506123fa565b505050565b6000600e60009054906101000a900473ffffffffffffffffffffffffffffffffffffffff16905081600e60006101000a81548173ffffffffffffffffffffffffffffffffffffffff021916908373ffffffffffffffffffffffffffffffffffffffff1602179055508173ffffffffffffffffffffffffffffffffffffffff168173ffffffffffffffffffffffffffffffffffffffff167f8be0079c531659141344cd1fd0a4f28419497f9722a3daafe3b4186f6b6457e060405160405180910390a35050565b8173ffffffffffffffffffffffffffffffffffffffff168373ffffffffffffffffffffffffffffffffffffffff1603611ed3576040517f08c379a0000000000000000000000000000000000000000000000000000000008152600401611eca90613b9a565b60405180910390fd5b80600560008573ffffffffffffffffffffffffffffffffffffffff1673ffffffffffffffffffffffffffffffffffffffff16815260200190815260200160002060008473ffffffffffffffffffffffffffffffffffffffff1673ffffffffffffffffffffffffffffffffffffffff16815260200190815260200160002060006101000a81548160ff0219169083151502179055508173ffffffffffffffffffffffffffffffffffffffff168373ffffffffffffffffffffffffffffffffffffffff167f17307eab39ab6107e8899845ad3d59bd9653f200f220920489ca2b5937696c3183604051611fc49190612a95565b60405180910390a3505050565b600081600754600960008773ffffffffffffffffffffffffffffffffffffffff1673ffffffffffffffffffffffffffffffffffffffff16815260200190815260200160002054856120229190613bba565b61202c9190613c2b565b6120369190613aae565b90509392505050565b61204a848484611a35565b612056848484846124c1565b612095576040517f08c379a000000000000000000000000000000000000000000000000000000000815260040161208c90613cce565b60405180910390fd5b50505050565b606060405180602001604052806000815250905090565b60606120bd826117a8565b60006120c761209b565b905060008151116120e75760405180602001604052806000815250612112565b806120f184612648565b604051602001612102929190613724565b6040516020818303038152906040525b915050919050565b6001816000016000828254019250508190555050565b600081600001549050919050565b600073ffffffffffffffffffffffffffffffffffffffff168273ffffffffffffffffffffffffffffffffffffffff16036121ad576040517f08c379a00000000000000000000000000000000000000000000000000000000081526004016121a490613d3a565b60405180910390fd5b6121b681612384565b156121f6576040517f08c379a00000000000000000000000000000000000000000000000000000000081526004016121ed90613da6565b60405180910390fd5b612202600083836123f0565b6001600360008473ffffffffffffffffffffffffffffffffffffffff1673ffffffffffffffffffffffffffffffffffffffff1681526020019081526020016000206000828254612252919061342b565b92505081905550816002600083815260200190815260200160002060006101000a81548173ffffffffffffffffffffffffffffffffffffffff021916908373ffffffffffffffffffffffffffffffffffffffff160217905550808273ffffffffffffffffffffffffffffffffffffffff16600073ffffffffffffffffffffffffffffffffffffffff167fddf252ad1be2c89b69c2b068fc378daa952ba7f163c4a11628f55a4df523b3ef60405160405180910390a4612313600083836123f5565b5050565b61232082612384565b61235f576040517f08c379a000000000000000000000000000000000000000000000000000000000815260040161235690613e38565b60405180910390fd5b8060066000848152602001908152602001600020908161237f9190613ffa565b505050565b60008073ffffffffffffffffffffffffffffffffffffffff166002600084815260200190815260200160002060009054906101000a900473ffffffffffffffffffffffffffffffffffffffff1673ffffffffffffffffffffffffffffffffffffffff1614159050919050565b505050565b505050565b600061245c826040518060400160405280602081526020017f5361666545524332303a206c6f772d6c6576656c2063616c6c206661696c65648152508573ffffffffffffffffffffffffffffffffffffffff166127a89092919063ffffffff16565b90506000815111156124bc578080602001905181019061247c91906140e1565b6124bb576040517f08c379a00000000000000000000000000000000000000000000000000000000081526004016124b290614180565b60405180910390fd5b5b505050565b60006124e28473ffffffffffffffffffffffffffffffffffffffff166127c0565b1561263b578373ffffffffffffffffffffffffffffffffffffffff1663150b7a0261250b610826565b8786866040518563ffffffff1660e01b815260040161252d94939291906141f5565b6020604051808303816000875af192505050801561256957506040513d601f19601f820116820180604052508101906125669190614256565b60015b6125eb573d8060008114612599576040519150601f19603f3d011682016040523d82523d6000602084013e61259e565b606091505b5060008151036125e3576040517f08c379a00000000000000000000000000000000000000000000000000000000081526004016125da90613cce565b60405180910390fd5b805181602001fd5b63150b7a0260e01b7bffffffffffffffffffffffffffffffffffffffffffffffffffffffff1916817bffffffffffffffffffffffffffffffffffffffffffffffffffffffff191614915050612640565b600190505b949350505050565b60606000820361268f576040518060400160405280600181526020017f300000000000000000000000000000000000000000000000000000000000000081525090506127a3565b600082905060005b600082146126c15780806126aa90614283565b915050600a826126ba9190613c2b565b9150612697565b60008167ffffffffffffffff8111156126dd576126dc612e3c565b5b6040519080825280601f01601f19166020018201604052801561270f5781602001600182028036833780820191505090505b5090505b6000851461279c576001826127289190613aae565b9150600a8561273791906142cb565b6030612743919061342b565b60f81b81838151811061275957612758613677565b5b60200101907effffffffffffffffffffffffffffffffffffffffffffffffffffffffffffff1916908160001a905350600a856127959190613c2b565b9450612713565b8093505050505b919050565b60606127b784846000856127e3565b90509392505050565b6000808273ffffffffffffffffffffffffffffffffffffffff163b119050919050565b606082471015612828576040517f08c379a000000000000000000000000000000000000000000000000000000000815260040161281f9061436e565b60405180910390fd5b612831856127c0565b612870576040517f08c379a0000000000000000000000000000000000000000000000000000000008152600401612867906143da565b60405180910390fd5b6000808673ffffffffffffffffffffffffffffffffffffffff168587604051612899919061442b565b60006040518083038185875af1925050503d80600081146128d6576040519150601f19603f3d011682016040523d82523d6000602084013e6128db565b606091505b50915091506128eb8282866128f7565b92505050949350505050565b6060831561290757829050612957565b60008351111561291a5782518084602001fd5b816040517f08c379a000000000000000000000000000000000000000000000000000000000815260040161294e9190612b40565b60405180910390fd5b9392505050565b600073ffffffffffffffffffffffffffffffffffffffff82169050919050565b60006129898261295e565b9050919050565b6129998161297e565b82525050565b6000819050919050565b6129b28161299f565b82525050565b60006040820190506129cd6000830185612990565b6129da60208301846129a9565b9392505050565b6000604051905090565b600080fd5b600080fd5b60007fffffffff0000000000000000000000000000000000000000000000000000000082169050919050565b612a2a816129f5565b8114612a3557600080fd5b50565b600081359050612a4781612a21565b92915050565b600060208284031215612a6357612a626129eb565b5b6000612a7184828501612a38565b91505092915050565b60008115159050919050565b612a8f81612a7a565b82525050565b6000602082019050612aaa6000830184612a86565b92915050565b600081519050919050565b600082825260208201905092915050565b60005b83811015612aea578082015181840152602081019050612acf565b60008484015250505050565b6000601f19601f8301169050919050565b6000612b1282612ab0565b612b1c8185612abb565b9350612b2c818560208601612acc565b612b3581612af6565b840191505092915050565b60006020820190508181036000830152612b5a8184612b07565b905092915050565b612b6b8161299f565b8114612b7657600080fd5b50565b600081359050612b8881612b62565b92915050565b600060208284031215612ba457612ba36129eb565b5b6000612bb284828501612b79565b91505092915050565b6000602082019050612bd06000830184612990565b92915050565b612bdf8161297e565b8114612bea57600080fd5b50565b600081359050612bfc81612bd6565b92915050565b60008060408385031215612c1957612c186129eb565b5b6000612c2785828601612bed565b9250506020612c3885828601612b79565b9150509250929050565b6000612c4d8261295e565b9050919050565b612c5d81612c42565b8114612c6857600080fd5b50565b600081359050612c7a81612c54565b92915050565b600060208284031215612c9657612c956129eb565b5b6000612ca484828501612c6b565b91505092915050565b600080600060608486031215612cc657612cc56129eb565b5b6000612cd486828701612bed565b9350506020612ce586828701612bed565b9250506040612cf686828701612b79565b9150509250925092565b6000602082019050612d1560008301846129a9565b92915050565b6000612d268261297e565b9050919050565b612d3681612d1b565b8114612d4157600080fd5b50565b600081359050612d5381612d2d565b92915050565b60008060408385031215612d7057612d6f6129eb565b5b6000612d7e85828601612d44565b9250506020612d8f85828601612bed565b9150509250929050565b600060208284031215612daf57612dae6129eb565b5b6000612dbd84828501612bed565b91505092915050565b612dcf81612a7a565b8114612dda57600080fd5b50565b600081359050612dec81612dc6565b92915050565b60008060408385031215612e0957612e086129eb565b5b6000612e1785828601612bed565b9250506020612e2885828601612ddd565b9150509250929050565b600080fd5b600080fd5b7f4e487b7100000000000000000000000000000000000000000000000000000000600052604160045260246000fd5b612e7482612af6565b810181811067ffffffffffffffff82111715612e9357612e92612e3c565b5b80604052505050565b6000612ea66129e1565b9050612eb28282612e6b565b919050565b600067ffffffffffffffff821115612ed257612ed1612e3c565b5b612edb82612af6565b9050602081019050919050565b82818337600083830152505050565b6000612f0a612f0584612eb7565b612e9c565b905082815260208101848484011115612f2657612f25612e37565b5b612f31848285612ee8565b509392505050565b600082601f830112612f4e57612f4d612e32565b5b8135612f5e848260208601612ef7565b91505092915050565b60008060008060808587031215612f8157612f806129eb565b5b6000612f8f87828801612bed565b9450506020612fa087828801612bed565b9350506040612fb187828801612b79565b925050606085013567ffffffffffffffff811115612fd257612fd16129f0565b5b612fde87828801612f39565b91505092959194509250565b60006020828403121561300057612fff6129eb565b5b600061300e84828501612d44565b91505092915050565b6000806040838503121561302e5761302d6129eb565b5b600061303c85828601612bed565b925050602061304d85828601612bed565b9150509250929050565b600067ffffffffffffffff82111561307257613071612e3c565b5b61307b82612af6565b9050602081019050919050565b600061309b61309684613057565b612e9c565b9050828152602081018484840111156130b7576130b6612e37565b5b6130c2848285612ee8565b509392505050565b600082601f8301126130df576130de612e32565b5b81356130ef848260208601613088565b91505092915050565b6000806040838503121561310f5761310e6129eb565b5b600061311d85828601612bed565b925050602083013567ffffffffffffffff81111561313e5761313d6129f0565b5b61314a858286016130ca565b9150509250929050565b7f4e487b7100000000000000000000000000000000000000000000000000000000600052602260045260246000fd5b6000600282049050600182168061319b57607f821691505b6020821081036131ae576131ad613154565b5b50919050565b7f4552433732313a20617070726f76616c20746f2063757272656e74206f776e6560008201527f7200000000000000000000000000000000000000000000000000000000000000602082015250565b6000613210602183612abb565b915061321b826131b4565b604082019050919050565b6000602082019050818103600083015261323f81613203565b9050919050565b7f4552433732313a20617070726f76652063616c6c6572206973206e6f7420746f60008201527f6b656e206f776e6572206e6f7220617070726f76656420666f7220616c6c0000602082015250565b60006132a2603e83612abb565b91506132ad82613246565b604082019050919050565b600060208201905081810360008301526132d181613295565b9050919050565b7f5061796d656e7453706c69747465723a206163636f756e7420686173206e6f2060008201527f7368617265730000000000000000000000000000000000000000000000000000602082015250565b6000613334602683612abb565b915061333f826132d8565b604082019050919050565b6000602082019050818103600083015261336381613327565b9050919050565b7f5061796d656e7453706c69747465723a206163636f756e74206973206e6f742060008201527f647565207061796d656e74000000000000000000000000000000000000000000602082015250565b60006133c6602b83612abb565b91506133d18261336a565b604082019050919050565b600060208201905081810360008301526133f5816133b9565b9050919050565b7f4e487b7100000000000000000000000000000000000000000000000000000000600052601160045260246000fd5b60006134368261299f565b91506134418361299f565b9250828201905080821115613459576134586133fc565b5b92915050565b6000819050919050565b600061348461347f61347a8461295e565b61345f565b61295e565b9050919050565b600061349682613469565b9050919050565b60006134a88261348b565b9050919050565b6134b88161349d565b82525050565b60006040820190506134d360008301856134af565b6134e060208301846129a9565b9392505050565b7f4552433732313a2063616c6c6572206973206e6f7420746f6b656e206f776e6560008201527f72206e6f7220617070726f766564000000000000000000000000000000000000602082015250565b6000613543602e83612abb565b915061354e826134e7565b604082019050919050565b6000602082019050818103600083015261357281613536565b9050919050565b7f4552433732313a20696e76616c696420746f6b656e2049440000000000000000600082015250565b60006135af601883612abb565b91506135ba82613579565b602082019050919050565b600060208201905081810360008301526135de816135a2565b9050919050565b7f4552433732313a2061646472657373207a65726f206973206e6f74206120766160008201527f6c6964206f776e65720000000000000000000000000000000000000000000000602082015250565b6000613641602983612abb565b915061364c826135e5565b604082019050919050565b6000602082019050818103600083015261367081613634565b9050919050565b7f4e487b7100000000000000000000000000000000000000000000000000000000600052603260045260246000fd5b6000815190506136b581612b62565b92915050565b6000602082840312156136d1576136d06129eb565b5b60006136df848285016136a6565b91505092915050565b600081905092915050565b60006136fe82612ab0565b61370881856136e8565b9350613718818560208601612acc565b80840191505092915050565b600061373082856136f3565b915061373c82846136f3565b91508190509392505050565b7f4e6f7420656e6f756768204554482073656e742e000000000000000000000000600082015250565b600061377e601483612abb565b915061378982613748565b602082019050919050565b600060208201905081810360008301526137ad81613771565b9050919050565b7f4f776e61626c653a206e6577206f776e657220697320746865207a65726f206160008201527f6464726573730000000000000000000000000000000000000000000000000000602082015250565b6000613810602683612abb565b915061381b826137b4565b604082019050919050565b6000602082019050818103600083015261383f81613803565b9050919050565b7f416464726573733a20696e73756666696369656e742062616c616e6365000000600082015250565b600061387c601d83612abb565b915061388782613846565b602082019050919050565b600060208201905081810360008301526138ab8161386f565b9050919050565b600081905092915050565b50565b60006138cd6000836138b2565b91506138d8826138bd565b600082019050919050565b60006138ee826138c0565b9150819050919050565b7f416464726573733a20756e61626c6520746f2073656e642076616c75652c207260008201527f6563697069656e74206d61792068617665207265766572746564000000000000602082015250565b6000613954603a83612abb565b915061395f826138f8565b604082019050919050565b6000602082019050818103600083015261398381613947565b9050919050565b7f4552433732313a207472616e736665722066726f6d20696e636f72726563742060008201527f6f776e6572000000000000000000000000000000000000000000000000000000602082015250565b60006139e6602583612abb565b91506139f18261398a565b604082019050919050565b60006020820190508181036000830152613a15816139d9565b9050919050565b7f4552433732313a207472616e7366657220746f20746865207a65726f2061646460008201527f7265737300000000000000000000000000000000000000000000000000000000602082015250565b6000613a78602483612abb565b9150613a8382613a1c565b604082019050919050565b60006020820190508181036000830152613aa781613a6b565b9050919050565b6000613ab98261299f565b9150613ac48361299f565b9250828203905081811115613adc57613adb6133fc565b5b92915050565b7f4f776e61626c653a2063616c6c6572206973206e6f7420746865206f776e6572600082015250565b6000613b18602083612abb565b9150613b2382613ae2565b602082019050919050565b60006020820190508181036000830152613b4781613b0b565b9050919050565b7f4552433732313a20617070726f766520746f2063616c6c657200000000000000600082015250565b6000613b84601983612abb565b9150613b8f82613b4e565b602082019050919050565b60006020820190508181036000830152613bb381613b77565b9050919050565b6000613bc58261299f565b9150613bd08361299f565b9250828202613bde8161299f565b91508282048414831517613bf557613bf46133fc565b5b5092915050565b7f4e487b7100000000000000000000000000000000000000000000000000000000600052601260045260246000fd5b6000613c368261299f565b9150613c418361299f565b925082613c5157613c50613bfc565b5b828204905092915050565b7f4552433732313a207472616e7366657220746f206e6f6e20455243373231526560008201527f63656976657220696d706c656d656e7465720000000000000000000000000000602082015250565b6000613cb8603283612abb565b9150613cc382613c5c565b604082019050919050565b60006020820190508181036000830152613ce781613cab565b9050919050565b7f4552433732313a206d696e7420746f20746865207a65726f2061646472657373600082015250565b6000613d24602083612abb565b9150613d2f82613cee565b602082019050919050565b60006020820190508181036000830152613d5381613d17565b9050919050565b7f4552433732313a20746f6b656e20616c7265616479206d696e74656400000000600082015250565b6000613d90601c83612abb565b9150613d9b82613d5a565b602082019050919050565b60006020820190508181036000830152613dbf81613d83565b9050919050565b7f45524337323155524953746f726167653a2055524920736574206f66206e6f6e60008201527f6578697374656e7420746f6b656e000000000000000000000000000000000000602082015250565b6000613e22602e83612abb565b9150613e2d82613dc6565b604082019050919050565b60006020820190508181036000830152613e5181613e15565b9050919050565b60008190508160005260206000209050919050565b60006020601f8301049050919050565b600082821b905092915050565b600060088302613eba7fffffffffffffffffffffffffffffffffffffffffffffffffffffffffffffffff82613e7d565b613ec48683613e7d565b95508019841693508086168417925050509392505050565b6000613ef7613ef2613eed8461299f565b61345f565b61299f565b9050919050565b6000819050919050565b613f1183613edc565b613f25613f1d82613efe565b848454613e8a565b825550505050565b600090565b613f3a613f2d565b613f45818484613f08565b505050565b5b81811015613f6957613f5e600082613f32565b600181019050613f4b565b5050565b601f821115613fae57613f7f81613e58565b613f8884613e6d565b81016020851015613f97578190505b613fab613fa385613e6d565b830182613f4a565b50505b505050565b600082821c905092915050565b6000613fd160001984600802613fb3565b1980831691505092915050565b6000613fea8383613fc0565b9150826002028217905092915050565b61400382612ab0565b67ffffffffffffffff81111561401c5761401b612e3c565b5b6140268254613183565b614031828285613f6d565b600060209050601f8311600181146140645760008415614052578287015190505b61405c8582613fde565b8655506140c4565b601f19841661407286613e58565b60005b8281101561409a57848901518255600182019150602085019450602081019050614075565b868310156140b757848901516140b3601f891682613fc0565b8355505b6001600288020188555050505b505050505050565b6000815190506140db81612dc6565b92915050565b6000602082840312156140f7576140f66129eb565b5b6000614105848285016140cc565b91505092915050565b7f5361666545524332303a204552433230206f7065726174696f6e20646964206e60008201527f6f74207375636365656400000000000000000000000000000000000000000000602082015250565b600061416a602a83612abb565b91506141758261410e565b604082019050919050565b600060208201905081810360008301526141998161415d565b9050919050565b600081519050919050565b600082825260208201905092915050565b60006141c7826141a0565b6141d181856141ab565b93506141e1818560208601612acc565b6141ea81612af6565b840191505092915050565b600060808201905061420a6000830187612990565b6142176020830186612990565b61422460408301856129a9565b818103606083015261423681846141bc565b905095945050505050565b60008151905061425081612a21565b92915050565b60006020828403121561426c5761426b6129eb565b5b600061427a84828501614241565b91505092915050565b600061428e8261299f565b91507fffffffffffffffffffffffffffffffffffffffffffffffffffffffffffffffff82036142c0576142bf6133fc565b5b600182019050919050565b60006142d68261299f565b91506142e18361299f565b9250826142f1576142f0613bfc565b5b828206905092915050565b7f416464726573733a20696e73756666696369656e742062616c616e636520666f60008201527f722063616c6c0000000000000000000000000000000000000000000000000000602082015250565b6000614358602683612abb565b9150614363826142fc565b604082019050919050565b600060208201905081810360008301526143878161434b565b9050919050565b7f416464726573733a2063616c6c20746f206e6f6e2d636f6e7472616374000000600082015250565b60006143c4601d83612abb565b91506143cf8261438e565b602082019050919050565b600060208201905081810360008301526143f3816143b7565b9050919050565b6000614405826141a0565b61440f81856138b2565b935061441f818560208601612acc565b80840191505092915050565b600061443782846143fa565b91508190509291505056fea2646970667358221220a998f600303bb9cc0adbe7a0352af854f78495625d36aed5906d8d94c0e680a964736f6c63430008110033",
  "linkReferences": {},
  "deployedLinkReferences": {}
}